:0A0000005BC0FECFFDCFFCCFFBCFAD
:10000A00FACFF9CFF8CFF7CFF6CFF5CFF4CFF3CFBA
:10001A00F2CFF1CFF0CFEFCFEECFEDCF1027E8033D
:10002A0064000A00010000100001100001004F43A3
:10003A004355504945443A25640046554C4C0050B6
:10004A0041524B494E472E2E2E0046554C4C2050BD
:10005A0041524B494E472E2E2E00535041434500E4
:10006A00415641494C41424C452E2E2E0053504197
:10007A00434520415641494C41424C452E2E2E00C3
:10008A0080C00500600144000B00650149001000B2
:10009A00700154000600800164000D0086016A00A8
:1000AA001300930177000200A6018A000000F89469
:1000BA00EE27ECBBF1E0FBBFEBBFE5BFF8E1F1BD1A
:1000CA00E1BD8DE0A2E0BB27ED938A95E9F780E0D8
:1000DA0094E0A0E6ED930197E9F7ECE8F0E085916A
:1000EA009591009761F0A591B59105901590BF0182
:1000FA00F00105900D920197E1F7FB01F0CFEFE5D2
:10010A00EDBFE4E0EEBFC0E6D1E00DC0AA93E881FE
:10011A00E7B98BE18A95F1F7369A349BFECF349A88
:10012A00E4B1F5B127C16E9740E050E0E0E0E8BBEA
:10013A00EFEFE7BBE0E0E5BBE4BBE2BBE1BBE3BF5B
:10014A00E2BFEFBDEEBDEDBDECBDE7BDE6BDEBBD6B
:10015A00EABDE9BDE8BDE2BDE5BDE4BDE3BDE5BF7D
:10016A00E9BFEBB9E8E1EAB9E6E8E0BDE0E0E0BD05
:10017A00E3E3E9B9E0E8E8B9E0E0E0BFE7B9E3E8DA
:10018A00E6B9E0E0EDB9E6BFA0E1C5D0A0E0BEDF88
:10019A008F01A1E0BBDF9F014A30E0E05E07C4F4B3
:1001AA000C32E1E01E078CF0E0EFE8BB4F5F5F4FD7
:1001BA0078D285D287D288D289D2E0EA8BD28ED2FF
:1001CA00E0E588D281D2D8D002C0E9E4E8BB10C009
:1001DA007BD0E1E0EA9376D2A0E6B1E084D26FD296
:1001EA00A1E065D0A5E6B1E07ED2A0E7B1E07FD27A
:1001FA004230E0E05E07CCF02C32E1E03E0794F0BA
:10020A00E0EFE8BB415050404CD2E1E0EA935AD2C9
:10021A005BD25CD2EAE05ED261D2E5E05BD254D234
:10022A00ABD002C0EFE0E8BB0FC04ED048D24AD2F2
:10023A00A0E8B1E058D243D2A1E039D0A6E8B1E0B3
:10024A0052D2A3E9B1E053D2A1CFFFCFAA93E8815A
:10025A00E07111F0939A01C09398E881E07211F06D
:10026A00949A01C09498E881E07411F0AD9A01C0A3
:10027A00AD98E881E07811F0AC9A01C0AC9885E0BD
:10028A008A95F1F7959A8DE08A95F1F795988DE020
:10029A008A95F1F76FC0AA93A881D8DFE881E29521
:1002AA00E883A881D3DF85E88A95F1F763C0AA932A
:1002BA00E881F0E0EA55FE4FE081A981AE0FEBDF5D
:1002CA005980488022960895A2E015D2ACE0E3DF77
:1002DA00A1E011D2E0E04E2E5E2E0895AA93A881E5
:1002EA00AA3011F0571440F0EAD14394A42DDFDF6D
:1002FA00A881AA3009F43EC05394979AA881CBDF0B
:10030A00979838C0BA93AA931A93F9D119F0A12FE2
:10031A00E5DFFBCF3AC0AA938B9A8C9AA59AA49A46
:10032A008D9A8F9A8E9A9598979896987880E88160
:10033A00E058E093A801E881E054E093A901A4E120
:10034A00B0E024D2E4D1E3D1E2D1A0E27FDF88ECAD
:10035A0090E00197F1F7A8E29EDFA4E09CDFA5E810
:10036A009ADFA6E098DFB0DF05C0AA935D9BFECFB7
:10037A00E881ECB921960895D1D11A93C0D119F028
:10038A00A12FF3DFFBCFAAE0F0DF188123960895AF
:10039A00C5D124D2C6D1129610D23097F1F0C1D16C
:1003AA00C3D18F01309761F00230E0E01E0770F090
:1003BA00F80131978F01AA81BB811496ED93FC93C2
:1003CA00B0D11296B4D13197AC81A083AAD1F5D11C
:1003DA00FF2312F0A6D1ABD105C0A3D1EFEFFFEFF7
:1003EA00ED93FC9302D22596089598D12697F2D1DF
:1003FA0010E0AC85BD85E0E0F0E0ED93FC93EA897E
:10040A00FB893196EA8BFB8B3197E4912E2FE030F2
:10041A0009F4FEC0E12FE03031F4253211F411E085
:10042A0001C08BD1F4C0E130A1F4253211F485D199
:10043A00EDC012E040E000E02D3211F401E0E7C027
:10044A002B3211F44BE2E3C0203211F440E2DFC058
:10045A0002C0E23039F450E013E0203311F40068AE
:10046A00D6C003C0E33009F0D2C0203310F02A33DB
:10047A0008F007C0AAE05A9F502DE22FE0535E0F02
:10048A00C6C0E22FE33639F45FD161D15DD1A481D0
:10049A00AA9361D1BBC0E33731F463D164D166D189
:1004AA00E9D01E2F08C0E03751F45BD15CD15ED190
:1004BA00ECD01E2F086002600F7730E02EC0E436C1
:1004CA0011F0E93611F4046002C0E53729F4E6E2D6
:1004DA00F0E051D115E00BC0E83511F4086003C013
:1004EA00E83709F093C0E0E3F0E045D114E002FFF9
:1004FA0011C037D138D142D1AB85AA232AF4EA8573
:10050A00FB8552D13BD14DE2403011F01F5F01C053
:10051A000B7F03C026D127D131D100FD10C015179A
:10052A0070F407FF08C002FF04C00B7F242F11508C
:10053A0001C020E301C020E200D15150F0CF312F99
:10054A0001FF15C0303091F003FF05C0EE81FF8135
:10055A00259111D105C0AE81BF812D91AE83BF8394
:10056A00ECD0503009F051503150ECCF46C020E366
:10057A00EE81FF8126D1E887F987EE81FF813296E5
:10058A00FAD0E885F985AA85BB85AE17BF0748F07A
:10059A002F5FA885B985EA85FB85EA1BFB0BEED0A0
:1005AA00F0CF2A3328F003FF02C0295F01C0295D7A
:1005BA0004FD19C0213320F4A885B985119709F4DF
:1005CA0009C0531710F000FF01C011C020E207FF55
:1005DA000AC020E3006102FF06C00B7F4A93BBD02A
:1005EA00503009F05150A9D0503009F051503150D3
:1005FA00A885B985129708F0BACF00FF07C0503016
:10060A0029F05150E0E2EA93A6D0F9CF10E0F7CEF4
:10061A00AC85BD85D2D0E5D064960895FF92F82EB8
:10062A002697DAD0AED0309719F4EFEFFFEF1EC05D
:10063A00DE011696B5D08D01A4D09DD0E0E0E88702
:10064A00E987DE011A96ACD0B8D0FA93EA931A93E6
:10065A000A93EDECF1E0FA93EA93DE011A96C5DE0D
:10066A009F01AE81BF81E0E0EC93F901BCD02A96EC
:10067A00FF90089553D0A991B991EE27FF276D9164
:10068A00662311F03196FBCF089548D0AA27BB27DD
:10069A00E991F9910590002011F01196FBCFFD0127
:1006AA000895FE01FA93EA93E8E3F0E0FA93EA93F5
:1006BA00FA017ED08AD084E0B1DF289605CEE0E048
:1006CA00EA930895A0E0F3CDDE0108951BDEA8EEBB
:1006DA00B3E05CC0E8BBA8EEB3E058C0E0E0E8BB1A
:1006EA00A8EBBBE053C00EDEA4EFB1E04FC044DE7E
:1006FA00A4EFB1E04BC0CFDDA3E0B0E047C0A981D1
:10070A00BA81ED91A983BA831E2FE0300895A0E340
:10071A009DDD88EC90E00197F1F70895BA93AA93CA
:10072A000895AA81BB810895149647D00895ED9142
:10073A00FD913196FE93EE9308952A93AD85BE8579
:10074A00EF85F88909950895E889F9890895349714
:10075A00E88BF98B0895AD85BE85EF85F8890995F3
:10076A000895F2DFF4CFA889B989DECFEE83FF833B
:10077A00AE81BF810895EE83FF830895EA87FB87E0
:10078A000895DE011C960CD018D00895109639F001
:10079A0080ED97E00197F1F7A8951197C9F70895A9
:1007AA000024AF0DB01D0895F195E195F04008952C
:1007BA006F2F660F660B762F0895ED91FC911197B6
:1007CA0008950590F491E02D08957A936A93FA9327
:1007DA00EA9308955A934A933A932A931A930A9357
:1007EA0008955D814C813B812A8119810881089590
:00000001FF
